{
  "_format": "hh-sol-artifact-1",
  "contractName": "Tasks",
  "sourceName": "contracts/Tasks.sol",
  "abi": [
    {
      "inputs": [
        {
          "internalType": "contract IERC20",
          "name": "platTokens_",
          "type": "address"
        }
      ],
      "stateMutability": "nonpayable",
      "type": "constructor"
    },
    {
      "anonymous": false,
      "inputs": [
        {
          "indexed": true,
          "internalType": "address",
          "name": "creator",
          "type": "address"
        },
        {
          "indexed": true,
          "internalType": "string",
          "name": "batchId",
          "type": "string"
        },
        {
          "indexed": true,
          "internalType": "uint256",
          "name": "balance",
          "type": "uint256"
        }
      ],
      "name": "CreateCampaign",
      "type": "event"
    },
    {
      "anonymous": false,
      "inputs": [
        {
          "indexed": true,
          "internalType": "address",
          "name": "previousOwner",
          "type": "address"
        },
        {
          "indexed": true,
          "internalType": "address",
          "name": "newOwner",
          "type": "address"
        }
      ],
      "name": "OwnershipTransferred",
      "type": "event"
    },
    {
      "inputs": [],
      "name": "campaignIndex",
      "outputs": [
        {
          "internalType": "uint256",
          "name": "_value",
          "type": "uint256"
        }
      ],
      "stateMutability": "view",
      "type": "function"
    },
    {
      "inputs": [
        {
          "internalType": "string",
          "name": "",
          "type": "string"
        }
      ],
      "name": "campaigns",
      "outputs": [
        {
          "internalType": "address",
          "name": "creator",
          "type": "address"
        },
        {
          "internalType": "uint256",
          "name": "balance",
          "type": "uint256"
        },
        {
          "internalType": "bool",
          "name": "isEnd",
          "type": "bool"
        }
      ],
      "stateMutability": "view",
      "type": "function"
    },
    {
      "inputs": [
        {
          "internalType": "address",
          "name": "",
          "type": "address"
        },
        {
          "internalType": "uint256",
          "name": "",
          "type": "uint256"
        }
      ],
      "name": "clientCampaigns",
      "outputs": [
        {
          "internalType": "string",
          "name": "",
          "type": "string"
        }
      ],
      "stateMutability": "view",
      "type": "function"
    },
    {
      "inputs": [
        {
          "internalType": "string",
          "name": "batchId",
          "type": "string"
        },
        {
          "internalType": "uint256",
          "name": "value",
          "type": "uint256"
        }
      ],
      "name": "createCampaign",
      "outputs": [],
      "stateMutability": "nonpayable",
      "type": "function"
    },
    {
      "inputs": [],
      "name": "owner",
      "outputs": [
        {
          "internalType": "address",
          "name": "",
          "type": "address"
        }
      ],
      "stateMutability": "view",
      "type": "function"
    },
    {
      "inputs": [
        {
          "internalType": "string",
          "name": "batchId",
          "type": "string"
        },
        {
          "internalType": "address[]",
          "name": "users",
          "type": "address[]"
        },
        {
          "internalType": "uint256",
          "name": "amount",
          "type": "uint256"
        }
      ],
      "name": "payment",
      "outputs": [],
      "stateMutability": "nonpayable",
      "type": "function"
    },
    {
      "inputs": [],
      "name": "platTokens",
      "outputs": [
        {
          "internalType": "contract IERC20",
          "name": "",
          "type": "address"
        }
      ],
      "stateMutability": "view",
      "type": "function"
    },
    {
      "inputs": [],
      "name": "renounceOwnership",
      "outputs": [],
      "stateMutability": "nonpayable",
      "type": "function"
    },
    {
      "inputs": [
        {
          "internalType": "contract IERC20",
          "name": "platToken_",
          "type": "address"
        }
      ],
      "name": "setPlatToken",
      "outputs": [],
      "stateMutability": "nonpayable",
      "type": "function"
    },
    {
      "inputs": [
        {
          "internalType": "address",
          "name": "newOwner",
          "type": "address"
        }
      ],
      "name": "transferOwnership",
      "outputs": [],
      "stateMutability": "nonpayable",
      "type": "function"
    }
  ],
  "bytecode": "0x608060405234801561001057600080fd5b50604051610de5380380610de583398101604081905261002f916100ad565b6100383361005d565b600280546001600160a01b0319166001600160a01b03929092169190911790556100db565b600080546001600160a01b038381166001600160a01b0319831681178455604051919092169283917f8be0079c531659141344cd1fd0a4f28419497f9722a3daafe3b4186f6b6457e09190a35050565b6000602082840312156100be578081fd5b81516001600160a01b03811681146100d4578182fd5b9392505050565b610cfb806100ea6000396000f3fe608060405234801561001057600080fd5b506004361061009e5760003560e01c80638712aecf116100665780638712aecf1461016f5780638da5cb5b1461019a5780639938a099146101ab578063f102a67c146101be578063f2fde38b146101d157600080fd5b806310236717146100a35780631d39e509146100cc5780634fdc7efd1461013a57806356361f0d1461014f578063715018a614610167575b600080fd5b6100b66100b136600461099a565b6101e4565b6040516100c39190610b76565b60405180910390f35b6101136100da3660046109e5565b80516020818301810180516003825292820191909301209152805460018201546002909201546001600160a01b03909116919060ff1683565b604080516001600160a01b03909416845260208401929092521515908201526060016100c3565b61014d61014836600461097e565b61029d565b005b6001546101599081565b6040519081526020016100c3565b61014d6102c7565b600254610182906001600160a01b031681565b6040516001600160a01b0390911681526020016100c3565b6000546001600160a01b0316610182565b61014d6101b9366004610a20565b6102db565b61014d6101cc366004610aff565b61048d565b61014d6101df36600461097e565b610744565b6004602052816000526040600020818154811061020057600080fd5b9060005260206000200160009150915050805461021c90610c29565b80601f016020809104026020016040519081016040528092919081815260200182805461024890610c29565b80156102955780601f1061026a57610100808354040283529160200191610295565b820191906000526020600020905b81548152906001019060200180831161027857829003601f168201915b505050505081565b6102a56107bd565b600280546001600160a01b0319166001600160a01b0392909216919091179055565b6102cf6107bd565b6102d96000610817565b565b6102e36107bd565b60006003846040516102f59190610b5a565b90815260408051918290036020908101832060608401835280546001600160a01b031684526001810154918401919091526002015460ff161515908201528351909150600090610346908490610867565b9050808260200151101561039d5760405162461bcd60e51b81526020600482015260196024820152785461736b733a204e6f7420656e6f7567682062616c616e636560381b60448201526064015b60405180910390fd5b60005b84518160ff1610156104855760025485516001600160a01b039091169063a9059cbb90879060ff85169081106103e657634e487b7160e01b600052603260045260246000fd5b6020026020010151866040518363ffffffff1660e01b81526004016104209291906001600160a01b03929092168252602082015260400190565b602060405180830381600087803b15801561043a57600080fd5b505af115801561044e573d6000803e3d6000fd5b505050506040513d601f19601f8201168201806040525081019061047291906109c5565b508061047d81610c64565b9150506103a0565b505050505050565b60006001600160a01b03166003836040516104a89190610b5a565b908152604051908190036020019020546001600160a01b0316146105065760405162461bcd60e51b815260206004820152601560248201527415185cdadcce8810985d18da125908195e1a5d1959605a1b6044820152606401610394565b6002546040516370a0823160e01b815233600482015282916001600160a01b0316906370a082319060240160206040518083038186803b15801561054957600080fd5b505afa15801561055d573d6000803e3d6000fd5b505050506040513d601f19601f820116820180604052508101906105819190610b42565b10156105cb5760405162461bcd60e51b81526020600482015260196024820152785461736b733a204e6f7420656e6f7567682062616c616e636560381b6044820152606401610394565b6002546040516323b872dd60e01b8152336004820152306024820152604481018390526001600160a01b03909116906323b872dd90606401602060405180830381600087803b15801561061d57600080fd5b505af1158015610631573d6000803e3d6000fd5b505050506040513d601f19601f8201168201806040525081019061065591906109c5565b5060408051606081018252338152602081018390526000818301529051600390610680908590610b5a565b9081526040805160209281900383019020835181546001600160a01b0319166001600160a01b0390911617815583830151600180830191909155938201516002909101805460ff19169115159190911790553360009081526004835290812080549384018155815281902084516106fe93919091019185019061087a565b50808260405161070e9190610b5a565b6040519081900381209033907f5c04f4c64423af25dc8dc6bd45d037a95fe962bb56e5ca1b993600448846f07f90600090a45050565b61074c6107bd565b6001600160a01b0381166107b15760405162461bcd60e51b815260206004820152602660248201527f4f776e61626c653a206e6577206f776e657220697320746865207a65726f206160448201526564647265737360d01b6064820152608401610394565b6107ba81610817565b50565b6000546001600160a01b031633146102d95760405162461bcd60e51b815260206004820181905260248201527f4f776e61626c653a2063616c6c6572206973206e6f7420746865206f776e65726044820152606401610394565b600080546001600160a01b038381166001600160a01b0319831681178455604051919092169283917f8be0079c531659141344cd1fd0a4f28419497f9722a3daafe3b4186f6b6457e09190a35050565b60006108738284610bda565b9392505050565b82805461088690610c29565b90600052602060002090601f0160209004810192826108a857600085556108ee565b82601f106108c157805160ff19168380011785556108ee565b828001600101855582156108ee579182015b828111156108ee5782518255916020019190600101906108d3565b506108fa9291506108fe565b5090565b5b808211156108fa57600081556001016108ff565b600082601f830112610923578081fd5b813567ffffffffffffffff81111561093d5761093d610c9a565b610950601f8201601f1916602001610ba9565b818152846020838601011115610964578283fd5b816020850160208301379081016020019190915292915050565b60006020828403121561098f578081fd5b813561087381610cb0565b600080604083850312156109ac578081fd5b82356109b781610cb0565b946020939093013593505050565b6000602082840312156109d6578081fd5b81518015158114610873578182fd5b6000602082840312156109f6578081fd5b813567ffffffffffffffff811115610a0c578182fd5b610a1884828501610913565b949350505050565b600080600060608486031215610a34578081fd5b833567ffffffffffffffff80821115610a4b578283fd5b610a5787838801610913565b9450602091508186013581811115610a6d578384fd5b8601601f81018813610a7d578384fd5b803582811115610a8f57610a8f610c9a565b8060051b9250610aa0848401610ba9565b8181528481019083860185850187018c1015610aba578788fd5b8795505b83861015610ae85780359450610ad385610cb0565b84835260019590950194918601918601610abe565b50979a979950505050604095909501359450505050565b60008060408385031215610b11578182fd5b823567ffffffffffffffff811115610b27578283fd5b610b3385828601610913565b95602094909401359450505050565b600060208284031215610b53578081fd5b5051919050565b60008251610b6c818460208701610bf9565b9190910192915050565b6020815260008251806020840152610b95816040850160208701610bf9565b601f01601f19169190910160400192915050565b604051601f8201601f1916810167ffffffffffffffff81118282101715610bd257610bd2610c9a565b604052919050565b6000816000190483118215151615610bf457610bf4610c84565b500290565b60005b83811015610c14578181015183820152602001610bfc565b83811115610c23576000848401525b50505050565b600181811c90821680610c3d57607f821691505b60208210811415610c5e57634e487b7160e01b600052602260045260246000fd5b50919050565b600060ff821660ff811415610c7b57610c7b610c84565b60010192915050565b634e487b7160e01b600052601160045260246000fd5b634e487b7160e01b600052604160045260246000fd5b6001600160a01b03811681146107ba57600080fdfea26469706673582212208b8f0f7c6b17d0126d697c13d83afde402c50441f841e16011e7d824613a101064736f6c63430008040033",
  "linkReferences": {},
  "deployedLinkReferences": {}
}